:0E0000000C943B000C9400000C9400000C9437
:10000E0000000C9400000C9400000C9400000C9462
:10001E0000000C94D0000C948B000C9400000C94F7
:10002E0000000C9400000C9400000C9400000C9442
:10003E0000000C9400000C9400000C9400000C9432
:10004E0000000C9400000000000000000100010000
:10005E002D4E414E00494E4600000800040054004B
:10006E00010060015C000000F894EE27ECBBF1E0AB
:10007E00FBBFEBBFE5BF8DE0A2E0BB27ED938A95FA
:10008E00E9F780E094E0A0E6ED930197E9F7E8E662
:10009E00F0E085919591009761F0A591B59105904D
:1000AE001590BF01F00105900D920197E1F7FB014C
:1000BE00F0CFEFE5EDBFE4E0EEBFC0E6D1E00C948B
:1000CE00F100BA93AA931A930A93E0E0F0E060E28B
:1000DE0071E40E942405EE81FF810E94BF02AC8173
:1000EE00BD810E94EA040E9430050E9474040E94A1
:1000FE0065038F01D801EAE0F0E00E9402058F014E
:10010E0019810881269608950A921A92FA926A9394
:10011E007A938A939A93AA93BA93EA93FA93EFB740
:10012E00EA93F40131964F01E2E0F0E0E815F905AB
:10013E0001F5E0E0F0E060E070E40E942405F501D6
:10014E0031970E94BF020E946303E8BB5A924A9203
:10015E00D5011197B6DFE5BBF50131965F01E4E0FD
:10016E00F0E0EA15FB051CF4E1E0F0E05F01882405
:10017E009924E0E0E2BFE991EFBFF991E991B991DD
:10018E00A9919991899179916991F9901990099014
:10019E001895EA93FA93EFB7EA93F30131963F017C
:1001AE00EAEFF0E0E615F70561F4EFE0F7E2E415AB
:1001BE00F50514F444245524F20131962F016624DA
:1001CE007724EFEFEDBDE0EFECBDE991EFBFF991D4
:1001DE00E9911895E5E0E9BFE3BFE0E0E2BFECBFCF
:1001EE00EFBDE5E0EEBDEFEFEDBDE0EFECBDE0E025
:1001FE00E5BFE4BF7894EFEFE4BBE5BBE7BBE8BB3C
:10020E00FFCFFFCF0E9429057B816A81F981E881AA
:10021E0077FB770F67FD7160972F9E5781F078F00F
:10022E00983190F4AA27BB27882708948795B7950D
:10023E00A7959A95D1F7EA23FB23682305C0E89486
:10024E007727EE27FF2766276F77769508F4606885
:10025E0077F9A991B99189919991EA17FB076807E6
:10026E00790797FB08950E9429050E941A050E949E
:10027E0009010E941F0519F40E94C70205C0E6F786
:10028E000E94C7020E94CA02249608950E94290560
:10029E0024971A930A930E94D1020E9444052CF0CF
:1002AE00EFEFFFEF6FE77FEF73C00E94D6020E9461
:1002BE002405ADB7BEB711971F930F930E9413037A
:1002CE000F911F910E94DB020E94D102E3EFF4E036
:1002DE0065E37FE30E94B90440F40E94E0020E94AD
:1002EE00D6030E94DB02015010400E94D6020E94EB
:1002FE00CA027F936F93FF93EF930E94D602A0E002
:10030E00B0E080E89FE30E94D603AF91BF918F913A
:10031E009F910E9474040E94DB020E94E0020E94E0
:10032E00E202A6E2B2E485E69FE30E94E902EEE471
:10033E00F1E164E570E40E94EE020E94D1020E9497
:10034E0026047F936F93FF93EF930E94F302ADE425
:10035E00B1E184ED9FE30E94CF03AF91BF918F91E6
:10036E009F910E9474047F936F93FF93EF93F80114
:10037E000E94E5040E949C03A8E1B2E781E39FE39B
:10038E000E942604AF91BF918F919F910E94D60338
:10039E00198108812A9608950E94290528971A9393
:1003AE000A930E94F802E0E5FCEA6EEA72EC0E9403
:1003BE00B90418F40E94FD0285C0EA85FB856C85A0
:1003CE007D850E94400529F4E0E0F0E060E87FE3DF
:1003DE0079C00E94F802E8E1F2E761EB72E40E9454
:1003EE00B90409F008F405C0EFEFFFEF6FE77FE700
:1003FE0069C00E94F802EBE3FAEA68EB7FE30E9421
:10040E002604EA87FB876C877D870E94F8022BDF24
:10041E000E9465038F010E94F8020E94E5040E946B
:10042E009C030E94EE02DF01CB01E0E0F0E060E011
:10043E007FE30E94EE020E94DB020E94E0020E9415
:10044E00E202ADE6BCE48CE69DE30E942604A6EA39
:10045E00B3EE86EE90E40E94D6030E94D1020E9473
:10046E0026040E94DB020E94F302A8E2BDE886EA9F
:10047E0091E40E94D603EA83FB836C837D830E9402
:10048E00D602AA81BB818C819D810E94D603A3EFE7
:10049E00B4E085EB9FE30E9426047F936F93FF9356
:1004AE00EF930E94D1020E94F3020E94CF03AF91FC
:1004BE00BF918F919F910E9474040E942405D801D0
:1004CE000E942403198108812E9608950E94290501
:1004DE0024970E9402030E94400519F40E94FD0217
:1004EE0045C0A885B9858A859B850E94440594F4EC
:1004FE000E9407030E94400529F4E0E0F0E060E866
:10050E007FE334C0A885B9858A859B850E940C033C
:10051E0043DF2CC00E940703DE010E9465030E9488
:10052E0010050E94C7020E949C03DF01CB010E94AE
:10053E0007030E944A0519F00E94FD0217C00E948F
:10054E0002030E943003DF01CB010E940C0324DF63
:10055E00E887F9876A877B87E881E17019F40E9442
:10056E00020304C00E9402030E9430032C960895D9
:10057E000E94E5040E949C03DF01CB010C946D02E6
:10058E000E9415050895A0E0B0E080E89FE30E9468
:10059E00CF030895AE81BF81888599850895EE8138
:1005AE00FF81688579850895EE83FF836887798753
:1005BE000895F5DFEFCF0E942604EA83FB836C8358
:1005CE007D8308950E942604DF01CB0108950E94C9
:1005DE0033050E94CF030895EA81FB816C817D81F2
:1005EE000895AA85BB858C859D850895E0E0F0E091
:1005FE0060E070E00895E885F9856A857B85089549
:10060E00EC81FD816E817F8108950E944D01AC8148
:10061E00BD818E819F81D6CFE991F99169917991B2
:10062E0077FB660F771F88277E57880B7D938C93F9
:10063E007EE7769567956EF00895E991F991699147
:10064E00799177FB660F771F7A0F769567950EF087
:10065E00089530976040704009F070580895552302
:10066E0042F4503811F4E0FF04C03196691F791F2F
:10067E006BF050E8572711F45F93CFC05F3F31F016
:10068E00660F000C57956795752F08955F930020A0
:10069E000AF0CFC0C8C050E8192E1522880F991F36
:1006AE009527550F879550E8072E0522660F771F61
:1006BE007527550F67950895689401C0E8945F9368
:1006CE00F2DF703818F07F3F08F4A7C056E1571BD1
:1006DE00AAF4519558300EF4593030F0EFEFFFEF89
:1006EE006FEF7FE777F91AC077275523B9F0EE0F32
:1006FE00FF1F661F771F5A95D1F710C07727583006
:10070E0028F0EF2FF62F672F5850F9CF552331F0E1
:10071E0076956795F795E7955A95D1F700200AF4E7
:10072E0045D15F910895689401C0E8943097604078
:10073E007040B1F0002426F0772312F4009436D1E5
:10074E00172E7EE1112032F07A95EE0FFF1F661FF5
:10075E00111CF9CFEF2FF62F612D5F938ADF5F917A
:10076E0008954F93AF01FD01DA01AB01BC01CA013F
:10077E00402D012C142E4F910895EA0FFB1F681F78
:10078E000895E095F0956095EF5FFF4F6F4F0895D8
:10079E005F9381DF903871F150E8152604C05F93A6
:1007AE007ADF903839F1703821F1572F591B2BF120
:1007BE0012F4D7DFFACF583118F0AA27BB278827B3
:1007CE00583028F0AB2FB82F88275850F9CF552323
:1007DE0029F08695B795A7955A95D9F7502D51259D
:1007EE0072F0CBDF38F46795F795E795739513F4B0
:1007FE0020C0B7DF3EDF5F910895D8F7FBCFEA1B2D
:10080E00FB0B680B51F010F40094BBDF662392F3E0
:10081E00EE0FFF1F661F7A95CBF7EE27FF27662791
:10082E0077275F910895EFEFFFEF6FE77FEF5F910F
:10083E000895EFEFFFEF6FE77FE75F9108955F9306
:10084E002ADF703851F3903841F301240894791F50
:10085E0023F41CF300203AF3ECCF0F921F932F9347
:10086E003F934F93112722279927689FA0018F9FAF
:10087E00302D410D591F6B9F300D411D591F8E9FFD
:10088E0027D0BF9F25D06A9F23D0BE9F1DD0AF9F7C
:10089E001BD0AE9F110D291F391F491F591FE32F62
:1008AE00F42F652F522F4F913F912F911F910F9043
:1008BE0066232AF0550FEE1FFF1F661F02C07395A9
:1008CE004BF2CDDE5F910895100D211D391F02C030
:1008DE00200D311D491F591F08955F93DCDE7038BE
:1008EE0021F411200AF49FCFA4CF903809F495CFAC
:1008FE0001240894970B1BF4D4F30020F3CF792F27
:10090E001F932F933F934F931124112722273327A1
:10091E004427552790E2AE17BF078607410730F0F0
:10092E00AE1BBF0B860B410B089401C08894551F5C
:10093E00221F331F111CAA1FBB1F881F441F9A950D
:10094E0051F7F901612D4F913F912F911F91662320
:10095E0032F0550FEE1FFF1F661F7A9543F27FDEB2
:10096E005F91089599239AF0772342F0971748F0F4
:10097E0029F4AE17BF07860720F031F098948894BB
:10098E000895989408940895189488940895772358
:10099E00C2F7971798F3A9F7EA17FB07680788F3CA
:1009AE0099F3ECCFF195E195F0400895F0956095AF
:1009BE007095E195FF4F6F4F7F4F08956F2F660F24
:1009CE00660B762F08958B2F880F880B982F08951E
:1009DE000024112490E1AA0FBB1F001C111C0E1A3B
:1009EE001F0A18F40E0E1F1E01C0A1609A9599F7EA
:1009FE00FD01D0010895E894B7FF04C0A095B0950D
:100A0E0011966894F7FDCEDFE3DFFD010EF4CADF29
:100A1E000895ED93FD936D937C930895E881F9818C
:100A2E006A817B810895A881B9818A819B8108950D
:100A3E00E883F9836A837B8308957A936A93FA93A2
:100A4E00EA9308959A938A93BA93AA930895689411
:100A5E0001C0E89401D06ADE182E862F612D192E62
:100A6E00972F712D1B2EBF2FF12D1A2EAE2FE12D8C
:100A7E000895309760407040089500240A160B06C2
:100A8E00080609060895EA17FB076807790708950F
:00000001FF
