:060000000C942A000C9490
:1000060000000C9400000C9400000C9400000C946A
:1000160000000C9400000C9400000C9400000C945A
:1000260000000C9400000C9400000C9400000C944A
:1000360000000C9400000C9400000C9400000C943A
:1000460000000C9400000C9400000C940000F8943E
:10005600EE27ECBBF1E0FBBFEBBFE5BF8DE0A2E016
:10006600BB27ED938A95E9F780E094E0A0E6ED934F
:100076000197E9F7EFE5EDBFE4E0EEBFC0E6D1E0BA
:100086000C944500E0E0EABBE9BBEFEFE7BBE0E03C
:10009600E8BB7894C89B15C018D01ED024D02AD0AF
:1000A60030D036D03CD0C79AA2E3B0E00E94990087
:1000B600C79835D02DD025D01DD015D00DD005D060
:1000C60002C0E0E0E8BBE6CFFFCFC09AA2E3B0E013
:1000D6000E949900C0980895C19AA2E3B0E00E94D8
:1000E6009900C1980895C29AA2E3B0E00E949900CF
:1000F600C2980895C39AA2E3B0E00E949900C398FB
:100106000895C49AA2E3B0E00E949900C4980895A5
:10011600C59AA2E3B0E00E949900C5980895C69AD0
:10012600A2E3B0E00E949900C6980895109639F0AF
:1001360088EB9BE00197F1F7A8951197C9F7089509
:00000001FF
